{
  "contractName": "Songs",
  "abi": [
    {
      "inputs": [],
      "name": "totalSongsCount",
      "outputs": [
        {
          "internalType": "uint256",
          "name": "",
          "type": "uint256"
        }
      ],
      "stateMutability": "view",
      "type": "function"
    },
    {
      "inputs": [
        {
          "internalType": "uint256",
          "name": "",
          "type": "uint256"
        }
      ],
      "name": "uploadSong",
      "outputs": [
        {
          "internalType": "string",
          "name": "songThumbnail",
          "type": "string"
        },
        {
          "internalType": "string",
          "name": "albumName",
          "type": "string"
        },
        {
          "internalType": "string",
          "name": "userId",
          "type": "string"
        },
        {
          "internalType": "string",
          "name": "artistName",
          "type": "string"
        },
        {
          "internalType": "uint256",
          "name": "price",
          "type": "uint256"
        },
        {
          "internalType": "string",
          "name": "songId",
          "type": "string"
        },
        {
          "internalType": "string",
          "name": "songName",
          "type": "string"
        },
        {
          "internalType": "string",
          "name": "userWalletId",
          "type": "string"
        },
        {
          "internalType": "string",
          "name": "songDescription",
          "type": "string"
        },
        {
          "internalType": "string",
          "name": "adminWalletId",
          "type": "string"
        },
        {
          "internalType": "uint256",
          "name": "createdAt",
          "type": "uint256"
        },
        {
          "internalType": "uint256",
          "name": "updatedAt",
          "type": "uint256"
        }
      ],
      "stateMutability": "view",
      "type": "function"
    },
    {
      "inputs": [
        {
          "internalType": "string",
          "name": "_songThumbnail",
          "type": "string"
        },
        {
          "internalType": "string",
          "name": "_albumName",
          "type": "string"
        },
        {
          "internalType": "string",
          "name": "_userId",
          "type": "string"
        },
        {
          "internalType": "string",
          "name": "_artistName",
          "type": "string"
        },
        {
          "internalType": "uint256",
          "name": "_price",
          "type": "uint256"
        },
        {
          "internalType": "string[]",
          "name": "_tune",
          "type": "string[]"
        },
        {
          "internalType": "string",
          "name": "_songId",
          "type": "string"
        },
        {
          "internalType": "string",
          "name": "_songName",
          "type": "string"
        },
        {
          "internalType": "string",
          "name": "_songDescription",
          "type": "string"
        },
        {
          "internalType": "string",
          "name": "_userWalletId",
          "type": "string"
        },
        {
          "internalType": "string",
          "name": "_adminWalletId",
          "type": "string"
        }
      ],
      "name": "createSong",
      "outputs": [
        {
          "components": [
            {
              "internalType": "string",
              "name": "songThumbnail",
              "type": "string"
            },
            {
              "internalType": "string",
              "name": "albumName",
              "type": "string"
            },
            {
              "internalType": "string",
              "name": "userId",
              "type": "string"
            },
            {
              "internalType": "string",
              "name": "artistName",
              "type": "string"
            },
            {
              "internalType": "uint256",
              "name": "price",
              "type": "uint256"
            },
            {
              "internalType": "string[]",
              "name": "tune",
              "type": "string[]"
            },
            {
              "internalType": "string",
              "name": "songId",
              "type": "string"
            },
            {
              "internalType": "string",
              "name": "songName",
              "type": "string"
            },
            {
              "internalType": "string",
              "name": "userWalletId",
              "type": "string"
            },
            {
              "internalType": "string",
              "name": "songDescription",
              "type": "string"
            },
            {
              "internalType": "string",
              "name": "adminWalletId",
              "type": "string"
            },
            {
              "internalType": "uint256",
              "name": "createdAt",
              "type": "uint256"
            },
            {
              "internalType": "uint256",
              "name": "updatedAt",
              "type": "uint256"
            }
          ],
          "internalType": "struct Songs.Form",
          "name": "",
          "type": "tuple"
        }
      ],
      "stateMutability": "nonpayable",
      "type": "function"
    },
    {
      "inputs": [],
      "name": "getAllSongs",
      "outputs": [
        {
          "components": [
            {
              "internalType": "string",
              "name": "songThumbnail",
              "type": "string"
            },
            {
              "internalType": "string",
              "name": "albumName",
              "type": "string"
            },
            {
              "internalType": "string",
              "name": "userId",
              "type": "string"
            },
            {
              "internalType": "string",
              "name": "artistName",
              "type": "string"
            },
            {
              "internalType": "uint256",
              "name": "price",
              "type": "uint256"
            },
            {
              "internalType": "string[]",
              "name": "tune",
              "type": "string[]"
            },
            {
              "internalType": "string",
              "name": "songId",
              "type": "string"
            },
            {
              "internalType": "string",
              "name": "songName",
              "type": "string"
            },
            {
              "internalType": "string",
              "name": "userWalletId",
              "type": "string"
            },
            {
              "internalType": "string",
              "name": "songDescription",
              "type": "string"
            },
            {
              "internalType": "string",
              "name": "adminWalletId",
              "type": "string"
            },
            {
              "internalType": "uint256",
              "name": "createdAt",
              "type": "uint256"
            },
            {
              "internalType": "uint256",
              "name": "updatedAt",
              "type": "uint256"
            }
          ],
          "internalType": "struct Songs.Form[]",
          "name": "",
          "type": "tuple[]"
        }
      ],
      "stateMutability": "view",
      "type": "function"
    },
    {
      "inputs": [
        {
          "internalType": "address",
          "name": "_sendTo",
          "type": "address"
        }
      ],
      "name": "sendMoney",
      "outputs": [],
      "stateMutability": "payable",
      "type": "function"
    },
    {
      "inputs": [
        {
          "internalType": "address payable",
          "name": "_uploader",
          "type": "address"
        },
        {
          "internalType": "address payable",
          "name": "_admin",
          "type": "address"
        }
      ],
      "name": "sendToUploader",
      "outputs": [],
      "stateMutability": "payable",
      "type": "function"
    }
  ],
  "bytecode": "0x6080604052600060015534801561001557600080fd5b506129c5806100256000396000f3fe6080604052600436106100555760003560e01c806329ef68621461005a578063338ccd78146100855780634ad50fcd146100a15780635e767181146100de57806389a967a014610109578063f30c482b14610151575b600080fd5b34801561006657600080fd5b5061006f61016d565b60405161007c9190611c8f565b60405180910390f35b61009f600480360381019061009a9190611d23565b610846565b005b3480156100ad57600080fd5b506100c860048036038101906100c39190611f97565b6108f6565b6040516100d591906122fb565b60405180910390f35b3480156100ea57600080fd5b506100f3611083565b604051610100919061232c565b60405180910390f35b34801561011557600080fd5b50610130600480360381019061012b9190612347565b611089565b6040516101489c9b9a999897969594939291906123be565b60405180910390f35b61016b600480360381019061016691906124f5565b6115b1565b005b6060600060015467ffffffffffffffff81111561018d5761018c611d5a565b5b6040519080825280602002602001820160405280156101c657816020015b6101b3611732565b8152602001906001900390816101ab5790505b50905060005b60015481101561083e57600080828152602001908152602001600020604051806101a001604052908160008201805461020490612564565b80601f016020809104026020016040519081016040528092919081815260200182805461023090612564565b801561027d5780601f106102525761010080835404028352916020019161027d565b820191906000526020600020905b81548152906001019060200180831161026057829003601f168201915b5050505050815260200160018201805461029690612564565b80601f01602080910402602001604051908101604052809291908181526020018280546102c290612564565b801561030f5780601f106102e45761010080835404028352916020019161030f565b820191906000526020600020905b8154815290600101906020018083116102f257829003601f168201915b5050505050815260200160028201805461032890612564565b80601f016020809104026020016040519081016040528092919081815260200182805461035490612564565b80156103a15780601f10610376576101008083540402835291602001916103a1565b820191906000526020600020905b81548152906001019060200180831161038457829003601f168201915b505050505081526020016003820180546103ba90612564565b80601f01602080910402602001604051908101604052809291908181526020018280546103e690612564565b80156104335780601f1061040857610100808354040283529160200191610433565b820191906000526020600020905b81548152906001019060200180831161041657829003601f168201915b505050505081526020016004820154815260200160058201805480602002602001604051908101604052809291908181526020016000905b8282101561051757838290600052602060002001805461048a90612564565b80601f01602080910402602001604051908101604052809291908181526020018280546104b690612564565b80156105035780601f106104d857610100808354040283529160200191610503565b820191906000526020600020905b8154815290600101906020018083116104e657829003601f168201915b50505050508152602001906001019061046b565b50505050815260200160068201805461052f90612564565b80601f016020809104026020016040519081016040528092919081815260200182805461055b90612564565b80156105a85780601f1061057d576101008083540402835291602001916105a8565b820191906000526020600020905b81548152906001019060200180831161058b57829003601f168201915b505050505081526020016007820180546105c190612564565b80601f01602080910402602001604051908101604052809291908181526020018280546105ed90612564565b801561063a5780601f1061060f5761010080835404028352916020019161063a565b820191906000526020600020905b81548152906001019060200180831161061d57829003601f168201915b5050505050815260200160088201805461065390612564565b80601f016020809104026020016040519081016040528092919081815260200182805461067f90612564565b80156106cc5780601f106106a1576101008083540402835291602001916106cc565b820191906000526020600020905b8154815290600101906020018083116106af57829003601f168201915b505050505081526020016009820180546106e590612564565b80601f016020809104026020016040519081016040528092919081815260200182805461071190612564565b801561075e5780601f106107335761010080835404028352916020019161075e565b820191906000526020600020905b81548152906001019060200180831161074157829003601f168201915b50505050508152602001600a8201805461077790612564565b80601f01602080910402602001604051908101604052809291908181526020018280546107a390612564565b80156107f05780601f106107c5576101008083540402835291602001916107f0565b820191906000526020600020905b8154815290600101906020018083116107d357829003601f168201915b50505050508152602001600b8201548152602001600c820154815250508282815181106108205761081f612596565b5b60200260200101819052508080610836906125f4565b9150506101cc565b508091505090565b60008173ffffffffffffffffffffffffffffffffffffffff163460405161086c90612694565b60006040518083038185875af1925050503d80600081146108a9576040519150601f19603f3d011682016040523d82523d6000602084013e6108ae565b606091505b50509050806108f2576040517f08c379a00000000000000000000000000000000000000000000000000000000081526004016108e9906126f5565b60405180910390fd5b5050565b6108fe611732565b6000429050600060016000815480929190610918906125f4565b919050559050600080600083815260200190815260200160002090508e81600001908051906020019061094c92919061179a565b508d81600101908051906020019061096592919061179a565b508c81600201908051906020019061097e92919061179a565b508b81600301908051906020019061099792919061179a565b508a8160040181905550898160050190805190602001906109b9929190611820565b50888160060190805190602001906109d292919061179a565b50878160070190805190602001906109eb92919061179a565b5086816009019080519060200190610a0492919061179a565b5085816008019080519060200190610a1d92919061179a565b508481600a019080519060200190610a3692919061179a565b508281600b01819055508281600c018190555080604051806101a0016040529081600082018054610a6690612564565b80601f0160208091040260200160405190810160405280929190818152602001828054610a9290612564565b8015610adf5780601f10610ab457610100808354040283529160200191610adf565b820191906000526020600020905b815481529060010190602001808311610ac257829003601f168201915b50505050508152602001600182018054610af890612564565b80601f0160208091040260200160405190810160405280929190818152602001828054610b2490612564565b8015610b715780601f10610b4657610100808354040283529160200191610b71565b820191906000526020600020905b815481529060010190602001808311610b5457829003601f168201915b50505050508152602001600282018054610b8a90612564565b80601f0160208091040260200160405190810160405280929190818152602001828054610bb690612564565b8015610c035780601f10610bd857610100808354040283529160200191610c03565b820191906000526020600020905b815481529060010190602001808311610be657829003601f168201915b50505050508152602001600382018054610c1c90612564565b80601f0160208091040260200160405190810160405280929190818152602001828054610c4890612564565b8015610c955780601f10610c6a57610100808354040283529160200191610c95565b820191906000526020600020905b815481529060010190602001808311610c7857829003601f168201915b505050505081526020016004820154815260200160058201805480602002602001604051908101604052809291908181526020016000905b82821015610d79578382906000526020600020018054610cec90612564565b80601f0160208091040260200160405190810160405280929190818152602001828054610d1890612564565b8015610d655780601f10610d3a57610100808354040283529160200191610d65565b820191906000526020600020905b815481529060010190602001808311610d4857829003601f168201915b505050505081526020019060010190610ccd565b505050508152602001600682018054610d9190612564565b80601f0160208091040260200160405190810160405280929190818152602001828054610dbd90612564565b8015610e0a5780601f10610ddf57610100808354040283529160200191610e0a565b820191906000526020600020905b815481529060010190602001808311610ded57829003601f168201915b50505050508152602001600782018054610e2390612564565b80601f0160208091040260200160405190810160405280929190818152602001828054610e4f90612564565b8015610e9c5780601f10610e7157610100808354040283529160200191610e9c565b820191906000526020600020905b815481529060010190602001808311610e7f57829003601f168201915b50505050508152602001600882018054610eb590612564565b80601f0160208091040260200160405190810160405280929190818152602001828054610ee190612564565b8015610f2e5780601f10610f0357610100808354040283529160200191610f2e565b820191906000526020600020905b815481529060010190602001808311610f1157829003601f168201915b50505050508152602001600982018054610f4790612564565b80601f0160208091040260200160405190810160405280929190818152602001828054610f7390612564565b8015610fc05780601f10610f9557610100808354040283529160200191610fc0565b820191906000526020600020905b815481529060010190602001808311610fa357829003601f168201915b50505050508152602001600a82018054610fd990612564565b80601f016020809104026020016040519081016040528092919081815260200182805461100590612564565b80156110525780601f1061102757610100808354040283529160200191611052565b820191906000526020600020905b81548152906001019060200180831161103557829003601f168201915b50505050508152602001600b8201548152602001600c8201548152505093505050509b9a5050505050505050505050565b60015481565b60006020528060005260406000206000915090508060000180546110ac90612564565b80601f01602080910402602001604051908101604052809291908181526020018280546110d890612564565b80156111255780601f106110fa57610100808354040283529160200191611125565b820191906000526020600020905b81548152906001019060200180831161110857829003601f168201915b50505050509080600101805461113a90612564565b80601f016020809104026020016040519081016040528092919081815260200182805461116690612564565b80156111b35780601f10611188576101008083540402835291602001916111b3565b820191906000526020600020905b81548152906001019060200180831161119657829003601f168201915b5050505050908060020180546111c890612564565b80601f01602080910402602001604051908101604052809291908181526020018280546111f490612564565b80156112415780601f1061121657610100808354040283529160200191611241565b820191906000526020600020905b81548152906001019060200180831161122457829003601f168201915b50505050509080600301805461125690612564565b80601f016020809104026020016040519081016040528092919081815260200182805461128290612564565b80156112cf5780601f106112a4576101008083540402835291602001916112cf565b820191906000526020600020905b8154815290600101906020018083116112b257829003601f168201915b5050505050908060040154908060060180546112ea90612564565b80601f016020809104026020016040519081016040528092919081815260200182805461131690612564565b80156113635780601f1061133857610100808354040283529160200191611363565b820191906000526020600020905b81548152906001019060200180831161134657829003601f168201915b50505050509080600701805461137890612564565b80601f01602080910402602001604051908101604052809291908181526020018280546113a490612564565b80156113f15780601f106113c6576101008083540402835291602001916113f1565b820191906000526020600020905b8154815290600101906020018083116113d457829003601f168201915b50505050509080600801805461140690612564565b80601f016020809104026020016040519081016040528092919081815260200182805461143290612564565b801561147f5780601f106114545761010080835404028352916020019161147f565b820191906000526020600020905b81548152906001019060200180831161146257829003601f168201915b50505050509080600901805461149490612564565b80601f01602080910402602001604051908101604052809291908181526020018280546114c090612564565b801561150d5780601f106114e25761010080835404028352916020019161150d565b820191906000526020600020905b8154815290600101906020018083116114f057829003601f168201915b50505050509080600a01805461152290612564565b80601f016020809104026020016040519081016040528092919081815260200182805461154e90612564565b801561159b5780601f106115705761010080835404028352916020019161159b565b820191906000526020600020905b81548152906001019060200180831161157e57829003601f168201915b50505050509080600b01549080600c015490508c565b60006002346115c09190612744565b9050600081346115d09190612775565b905060008373ffffffffffffffffffffffffffffffffffffffff16836040516115f89061281b565b60006040518083038185875af1925050503d8060008114611635576040519150601f19603f3d011682016040523d82523d6000602084013e61163a565b606091505b505090508061167e576040517f08c379a00000000000000000000000000000000000000000000000000000000081526004016116759061287c565b60405180910390fd5b60008573ffffffffffffffffffffffffffffffffffffffff16836040516116a49061290e565b60006040518083038185875af1925050503d80600081146116e1576040519150601f19603f3d011682016040523d82523d6000602084013e6116e6565b606091505b505090508061172a576040517f08c379a00000000000000000000000000000000000000000000000000000000081526004016117219061296f565b60405180910390fd5b505050505050565b604051806101a00160405280606081526020016060815260200160608152602001606081526020016000815260200160608152602001606081526020016060815260200160608152602001606081526020016060815260200160008152602001600081525090565b8280546117a690612564565b90600052602060002090601f0160209004810192826117c8576000855561180f565b82601f106117e157805160ff191683800117855561180f565b8280016001018555821561180f579182015b8281111561180e5782518255916020019190600101906117f3565b5b50905061181c9190611880565b5090565b82805482825590600052602060002090810192821561186f579160200282015b8281111561186e57825182908051906020019061185e92919061179a565b5091602001919060010190611840565b5b50905061187c919061189d565b5090565b5b80821115611899576000816000905550600101611881565b5090565b5b808211156118bd57600081816118b491906118c1565b5060010161189e565b5090565b5080546118cd90612564565b6000825580601f106118df57506118fe565b601f0160209004906000526020600020908101906118fd9190611880565b5b50565b600081519050919050565b600082825260208201905092915050565b6000819050602082019050919050565b600081519050919050565b600082825260208201905092915050565b60005b8381101561196757808201518184015260208101905061194c565b83811115611976576000848401525b50505050565b6000601f19601f8301169050919050565b60006119988261192d565b6119a28185611938565b93506119b2818560208601611949565b6119bb8161197c565b840191505092915050565b6000819050919050565b6119d9816119c6565b82525050565b600081519050919050565b600082825260208201905092915050565b6000819050602082019050919050565b6000611a17838361198d565b905092915050565b6000602082019050919050565b6000611a37826119df565b611a4181856119ea565b935083602082028501611a53856119fb565b8060005b85811015611a8f5784840389528151611a708582611a0b565b9450611a7b83611a1f565b925060208a01995050600181019050611a57565b50829750879550505050505092915050565b60006101a0830160008301518482036000860152611abf828261198d565b91505060208301518482036020860152611ad9828261198d565b91505060408301518482036040860152611af3828261198d565b91505060608301518482036060860152611b0d828261198d565b9150506080830151611b2260808601826119d0565b5060a083015184820360a0860152611b3a8282611a2c565b91505060c083015184820360c0860152611b54828261198d565b91505060e083015184820360e0860152611b6e828261198d565b915050610100830151848203610100860152611b8a828261198d565b915050610120830151848203610120860152611ba6828261198d565b915050610140830151848203610140860152611bc2828261198d565b915050610160830151611bd96101608601826119d0565b50610180830151611bee6101808601826119d0565b508091505092915050565b6000611c058383611aa1565b905092915050565b6000602082019050919050565b6000611c2582611901565b611c2f818561190c565b935083602082028501611c418561191d565b8060005b85811015611c7d5784840389528151611c5e8582611bf9565b9450611c6983611c0d565b925060208a01995050600181019050611c45565b50829750879550505050505092915050565b60006020820190508181036000830152611ca98184611c1a565b905092915050565b6000604051905090565b600080fd5b600080fd5b600073ffffffffffffffffffffffffffffffffffffffff82169050919050565b6000611cf082611cc5565b9050919050565b611d0081611ce5565b8114611d0b57600080fd5b50565b600081359050611d1d81611cf7565b92915050565b600060208284031215611d3957611d38611cbb565b5b6000611d4784828501611d0e565b91505092915050565b600080fd5b600080fd5b7f4e487b7100000000000000000000000000000000000000000000000000000000600052604160045260246000fd5b611d928261197c565b810181811067ffffffffffffffff82111715611db157611db0611d5a565b5b80604052505050565b6000611dc4611cb1565b9050611dd08282611d89565b919050565b600067ffffffffffffffff821115611df057611def611d5a565b5b611df98261197c565b9050602081019050919050565b82818337600083830152505050565b6000611e28611e2384611dd5565b611dba565b905082815260208101848484011115611e4457611e43611d55565b5b611e4f848285611e06565b509392505050565b600082601f830112611e6c57611e6b611d50565b5b8135611e7c848260208601611e15565b91505092915050565b611e8e816119c6565b8114611e9957600080fd5b50565b600081359050611eab81611e85565b92915050565b600067ffffffffffffffff821115611ecc57611ecb611d5a565b5b602082029050602081019050919050565b600080fd5b6000611ef5611ef084611eb1565b611dba565b90508083825260208201905060208402830185811115611f1857611f17611edd565b5b835b81811015611f5f57803567ffffffffffffffff811115611f3d57611f3c611d50565b5b808601611f4a8982611e57565b85526020850194505050602081019050611f1a565b5050509392505050565b600082601f830112611f7e57611f7d611d50565b5b8135611f8e848260208601611ee2565b91505092915050565b60008060008060008060008060008060006101608c8e031215611fbd57611fbc611cbb565b5b60008c013567ffffffffffffffff811115611fdb57611fda611cc0565b5b611fe78e828f01611e57565b9b505060208c013567ffffffffffffffff81111561200857612007611cc0565b5b6120148e828f01611e57565b9a505060408c013567ffffffffffffffff81111561203557612034611cc0565b5b6120418e828f01611e57565b99505060608c013567ffffffffffffffff81111561206257612061611cc0565b5b61206e8e828f01611e57565b985050608061207f8e828f01611e9c565b97505060a08c013567ffffffffffffffff8111156120a05761209f611cc0565b5b6120ac8e828f01611f69565b96505060c08c013567ffffffffffffffff8111156120cd576120cc611cc0565b5b6120d98e828f01611e57565b95505060e08c013567ffffffffffffffff8111156120fa576120f9611cc0565b5b6121068e828f01611e57565b9450506101008c013567ffffffffffffffff81111561212857612127611cc0565b5b6121348e828f01611e57565b9350506101208c013567ffffffffffffffff81111561215657612155611cc0565b5b6121628e828f01611e57565b9250506101408c013567ffffffffffffffff81111561218457612183611cc0565b5b6121908e828f01611e57565b9150509295989b509295989b9093969950565b60006101a08301600083015184820360008601526121c1828261198d565b915050602083015184820360208601526121db828261198d565b915050604083015184820360408601526121f5828261198d565b9150506060830151848203606086015261220f828261198d565b915050608083015161222460808601826119d0565b5060a083015184820360a086015261223c8282611a2c565b91505060c083015184820360c0860152612256828261198d565b91505060e083015184820360e0860152612270828261198d565b91505061010083015184820361010086015261228c828261198d565b9150506101208301518482036101208601526122a8828261198d565b9150506101408301518482036101408601526122c4828261198d565b9150506101608301516122db6101608601826119d0565b506101808301516122f06101808601826119d0565b508091505092915050565b6000602082019050818103600083015261231581846121a3565b905092915050565b612326816119c6565b82525050565b6000602082019050612341600083018461231d565b92915050565b60006020828403121561235d5761235c611cbb565b5b600061236b84828501611e9c565b91505092915050565b600082825260208201905092915050565b60006123908261192d565b61239a8185612374565b93506123aa818560208601611949565b6123b38161197c565b840191505092915050565b60006101808201905081810360008301526123d9818f612385565b905081810360208301526123ed818e612385565b90508181036040830152612401818d612385565b90508181036060830152612415818c612385565b9050612424608083018b61231d565b81810360a0830152612436818a612385565b905081810360c083015261244a8189612385565b905081810360e083015261245e8188612385565b90508181036101008301526124738187612385565b90508181036101208301526124888186612385565b905061249861014083018561231d565b6124a661016083018461231d565b9d9c50505050505050505050505050565b60006124c282611cc5565b9050919050565b6124d2816124b7565b81146124dd57600080fd5b50565b6000813590506124ef816124c9565b92915050565b6000806040838503121561250c5761250b611cbb565b5b600061251a858286016124e0565b925050602061252b858286016124e0565b9150509250929050565b7f4e487b7100000000000000000000000000000000000000000000000000000000600052602260045260246000fd5b6000600282049050600182168061257c57607f821691505b602082108114156125905761258f612535565b5b50919050565b7f4e487b7100000000000000000000000000000000000000000000000000000000600052603260045260246000fd5b7f4e487b7100000000000000000000000000000000000000000000000000000000600052601160045260246000fd5b60006125ff826119c6565b91507fffffffffffffffffffffffffffffffffffffffffffffffffffffffffffffffff821415612632576126316125c5565b5b600182019050919050565b600081905092915050565b7f5472616e73666572726564207375636365737366756c6c790000000000000000600082015250565b600061267e60188361263d565b915061268982612648565b601882019050919050565b600061269f82612671565b9150819050919050565b7f4d6f6e6579204e6f742073656e74000000000000000000000000000000000000600082015250565b60006126df600e83612374565b91506126ea826126a9565b602082019050919050565b6000602082019050818103600083015261270e816126d2565b9050919050565b7f4e487b7100000000000000000000000000000000000000000000000000000000600052601260045260246000fd5b600061274f826119c6565b915061275a836119c6565b92508261276a57612769612715565b5b828204905092915050565b6000612780826119c6565b915061278b836119c6565b92508282101561279e5761279d6125c5565b5b828203905092915050565b7f5472616e7366657272656420746f2061646d696e207375636365737366756c6c60008201527f7900000000000000000000000000000000000000000000000000000000000000602082015250565b600061280560218361263d565b9150612810826127a9565b602182019050919050565b6000612826826127f8565b9150819050919050565b7f4661696c656420746f2073656e64206d6f6e657920746f2061646d696e000000600082015250565b6000612866601d83612374565b915061287182612830565b602082019050919050565b6000602082019050818103600083015261289581612859565b9050919050565b7f5472616e7366657272656420746f2075706c6f6164657220737563636573736660008201527f756c6c7900000000000000000000000000000000000000000000000000000000602082015250565b60006128f860248361263d565b91506129038261289c565b602482019050919050565b6000612919826128eb565b9150819050919050565b7f4661696c656420746f2073656e64206d6f6e657920746f2075706c6f61646572600082015250565b6000612959602083612374565b915061296482612923565b602082019050919050565b600060208201905081810360008301526129888161294c565b905091905056fea264697066735822122080a994e12cc394d364a26bbe6803ca021bd79506dff2eab353a9f37aeff8d96664736f6c63430008090033",
  "immutableReferences": {},
  "source": "// SPDX-License-Identifier: UNLICENSED\r\npragma solidity >=0.6.0 <=0.9.0;\r\n \r\ncontract Songs {\r\n    struct Form {\r\n        string songThumbnail;\r\n        string albumName;\r\n        string userId;\r\n        string artistName;\r\n        uint256 price;\r\n        string[] tune;\r\n        string songId;\r\n        string songName;\r\n        string userWalletId;\r\n        string songDescription;\r\n        string adminWalletId;\r\n        uint256 createdAt;\r\n        uint256 updatedAt;\r\n    }\r\n \r\n    //mapping\r\n    mapping(uint256 => Form) public uploadSong;\r\n    //total song counts(unlike index)\r\n    uint public totalSongsCount = 0;\r\n \r\n    //saveSong\r\n    function createSong(\r\n        string memory _songThumbnail,\r\n        string memory _albumName,\r\n        string memory _userId,\r\n        string memory _artistName,\r\n        uint256 _price,\r\n        string[] memory _tune,\r\n        string memory _songId,\r\n        string memory _songName,\r\n        string memory _songDescription,\r\n        string memory _userWalletId,\r\n        string memory _adminWalletId\r\n    ) public returns(Form memory) {\r\n        //to get timestamp of the date\r\n        uint256 timenow = block.timestamp;\r\n \r\n        //savesong property\r\n        uint256 index = totalSongsCount++;\r\n        Form storage song = uploadSong[index];\r\n        //songdetails\r\n        song.songThumbnail = _songThumbnail;\r\n        song.albumName = _albumName;\r\n        song.userId = _userId;\r\n        song.artistName = _artistName;\r\n        song.price = _price;\r\n        song.tune = _tune;\r\n        song.songId = _songId;\r\n        song.songName = _songName;\r\n        song.songDescription = _songDescription;\r\n        song.userWalletId = _userWalletId;\r\n        song.adminWalletId = _adminWalletId;\r\n        song.createdAt = timenow;\r\n        song.updatedAt = timenow;\r\n \r\n        return song;\r\n    }\r\n \r\n    //getallsongs\r\n    function getAllSongs() public view returns(Form[] memory) {\r\n        Form[] memory allSongs = new Form[](totalSongsCount);\r\n        for(uint256 i = 0; i < totalSongsCount; i++) {\r\n            allSongs[i] = uploadSong[i];\r\n        }\r\n        return allSongs;\r\n    }\r\n\r\n \r\n \r\n    function sendMoney(address _sendTo) external payable {\r\n        (bool sent, ) = payable(_sendTo).call{value: msg.value}(\r\n            \"Transferred successfully\"\r\n        );\r\n        require(sent, \"Money Not sent\");\r\n    }\r\n     \r\n function sendToUploader(\r\n        address payable _uploader,\r\n        address payable _admin\r\n    ) external payable {\r\n        // uint256 amountToSend = msg.value / 2; // Divide the received amount equally\r\n \r\n        uint256 amountToAdmin = (msg.value) /2;\r\n        uint256 amountToUploader = msg.value - amountToAdmin;\r\n \r\n        (bool sent1, ) = _admin.call{value: amountToAdmin}(\r\n            \"Transferred to admin successfully\"\r\n        );\r\n        require(sent1, \"Failed to send money to admin\");\r\n \r\n        (bool sent2, ) = _uploader.call{value: amountToUploader}(\r\n            \"Transferred to uploader successfully\"\r\n        );\r\n        require(sent2, \"Failed to send money to uploader\");\r\n    }\r\n \r\n}\r\n ",
  "sourcePath": "D:\\WorkSpace\\iMusic\\client\\src\\truffle\\contracts\\Songs.sol",
  "compiler": {
    "name": "solc",
    "version": "0.8.9+commit.e5eed63a.Emscripten.clang"
  },
  "schemaVersion": "3.4.14",
  "updatedAt": "2023-05-31T18:29:46.478Z",
  "devdoc": {
    "kind": "dev",
    "methods": {},
    "version": 1
  },
  "userdoc": {
    "kind": "user",
    "methods": {},
    "version": 1
  }
}