{
  "contractName": "Songs",
  "abi": [
    {
      "inputs": [],
      "name": "totalSongsCount",
      "outputs": [
        {
          "internalType": "uint256",
          "name": "",
          "type": "uint256"
        }
      ],
      "stateMutability": "view",
      "type": "function",
      "constant": true
    },
    {
      "inputs": [
        {
          "internalType": "uint256",
          "name": "",
          "type": "uint256"
        }
      ],
      "name": "uploadSong",
      "outputs": [
        {
          "internalType": "string",
          "name": "songThumbnail",
          "type": "string"
        },
        {
          "internalType": "string",
          "name": "albumName",
          "type": "string"
        },
        {
          "internalType": "string",
          "name": "userId",
          "type": "string"
        },
        {
          "internalType": "string",
          "name": "artistName",
          "type": "string"
        },
        {
          "internalType": "uint256",
          "name": "price",
          "type": "uint256"
        },
        {
          "internalType": "string",
          "name": "lyrics",
          "type": "string"
        },
        {
          "internalType": "string",
          "name": "songName",
          "type": "string"
        },
        {
          "internalType": "bool",
          "name": "favourited",
          "type": "bool"
        },
        {
          "internalType": "string",
          "name": "songDescription",
          "type": "string"
        },
        {
          "internalType": "address",
          "name": "depositAddress",
          "type": "address"
        },
        {
          "internalType": "uint256",
          "name": "createdAt",
          "type": "uint256"
        },
        {
          "internalType": "uint256",
          "name": "updatedAt",
          "type": "uint256"
        }
      ],
      "stateMutability": "view",
      "type": "function",
      "constant": true
    },
    {
      "inputs": [
        {
          "internalType": "string",
          "name": "_songThumbnail",
          "type": "string"
        },
        {
          "internalType": "string",
          "name": "_albumName",
          "type": "string"
        },
        {
          "internalType": "string",
          "name": "_userId",
          "type": "string"
        },
        {
          "internalType": "string",
          "name": "_artistName",
          "type": "string"
        },
        {
          "internalType": "uint256",
          "name": "_price",
          "type": "uint256"
        },
        {
          "internalType": "string[]",
          "name": "_tune",
          "type": "string[]"
        },
        {
          "internalType": "string",
          "name": "_lyrics",
          "type": "string"
        },
        {
          "internalType": "string",
          "name": "_songName",
          "type": "string"
        },
        {
          "internalType": "string",
          "name": "_songDescription",
          "type": "string"
        },
        {
          "internalType": "address",
          "name": "_depositAddress",
          "type": "address"
        }
      ],
      "name": "createSong",
      "outputs": [
        {
          "components": [
            {
              "internalType": "string",
              "name": "songThumbnail",
              "type": "string"
            },
            {
              "internalType": "string",
              "name": "albumName",
              "type": "string"
            },
            {
              "internalType": "string",
              "name": "userId",
              "type": "string"
            },
            {
              "internalType": "string",
              "name": "artistName",
              "type": "string"
            },
            {
              "internalType": "uint256",
              "name": "price",
              "type": "uint256"
            },
            {
              "internalType": "string[]",
              "name": "tune",
              "type": "string[]"
            },
            {
              "internalType": "string",
              "name": "lyrics",
              "type": "string"
            },
            {
              "internalType": "string",
              "name": "songName",
              "type": "string"
            },
            {
              "internalType": "bool",
              "name": "favourited",
              "type": "bool"
            },
            {
              "internalType": "string",
              "name": "songDescription",
              "type": "string"
            },
            {
              "internalType": "address",
              "name": "depositAddress",
              "type": "address"
            },
            {
              "internalType": "uint256",
              "name": "createdAt",
              "type": "uint256"
            },
            {
              "internalType": "uint256",
              "name": "updatedAt",
              "type": "uint256"
            }
          ],
          "internalType": "struct Songs.Form",
          "name": "",
          "type": "tuple"
        }
      ],
      "stateMutability": "nonpayable",
      "type": "function"
    },
    {
      "inputs": [],
      "name": "getAllSongs",
      "outputs": [
        {
          "components": [
            {
              "internalType": "string",
              "name": "songThumbnail",
              "type": "string"
            },
            {
              "internalType": "string",
              "name": "albumName",
              "type": "string"
            },
            {
              "internalType": "string",
              "name": "userId",
              "type": "string"
            },
            {
              "internalType": "string",
              "name": "artistName",
              "type": "string"
            },
            {
              "internalType": "uint256",
              "name": "price",
              "type": "uint256"
            },
            {
              "internalType": "string[]",
              "name": "tune",
              "type": "string[]"
            },
            {
              "internalType": "string",
              "name": "lyrics",
              "type": "string"
            },
            {
              "internalType": "string",
              "name": "songName",
              "type": "string"
            },
            {
              "internalType": "bool",
              "name": "favourited",
              "type": "bool"
            },
            {
              "internalType": "string",
              "name": "songDescription",
              "type": "string"
            },
            {
              "internalType": "address",
              "name": "depositAddress",
              "type": "address"
            },
            {
              "internalType": "uint256",
              "name": "createdAt",
              "type": "uint256"
            },
            {
              "internalType": "uint256",
              "name": "updatedAt",
              "type": "uint256"
            }
          ],
          "internalType": "struct Songs.Form[]",
          "name": "",
          "type": "tuple[]"
        }
      ],
      "stateMutability": "view",
      "type": "function",
      "constant": true
    },
    {
      "inputs": [
        {
          "internalType": "address",
          "name": "_sendTo",
          "type": "address"
        }
      ],
      "name": "sendMoney",
      "outputs": [],
      "stateMutability": "payable",
      "type": "function",
      "payable": true
    },
    {
      "inputs": [
        {
          "internalType": "address payable",
          "name": "_uploader",
          "type": "address"
        },
        {
          "internalType": "address payable",
          "name": "_admin",
          "type": "address"
        }
      ],
      "name": "sendToUploader",
      "outputs": [],
      "stateMutability": "payable",
      "type": "function",
      "payable": true
    }
  ],
  "bytecode": "0x6080604052600060015534801561001557600080fd5b50612792806100256000396000f3fe6080604052600436106100555760003560e01c806329ef68621461005a578063338ccd78146100855780635e767181146100a157806389a967a0146100cc578063caf0d50914610114578063f30c482b14610151575b600080fd5b34801561006657600080fd5b5061006f61016d565b60405161007c9190611ad9565b60405180910390f35b61009f600480360381019061009a9190611b3b565b610793565b005b3480156100ad57600080fd5b506100b6610843565b6040516100c39190611b77565b60405180910390f35b3480156100d857600080fd5b506100f360048036038101906100ee9190611bbe565b610849565b60405161010b9c9b9a99989796959493929190611c53565b60405180910390f35b34801561012057600080fd5b5061013b60048036038101906101369190611f59565b610c8e565b6040516101489190612262565b60405180910390f35b61016b600480360381019061016691906122c2565b611395565b005b6060600060015467ffffffffffffffff81111561018d5761018c611d48565b5b6040519080825280602002602001820160405280156101c657816020015b6101b3611516565b8152602001906001900390816101ab5790505b50905060005b60015481101561078b57600080828152602001908152602001600020604051806101a001604052908160008201805461020490612331565b80601f016020809104026020016040519081016040528092919081815260200182805461023090612331565b801561027d5780601f106102525761010080835404028352916020019161027d565b820191906000526020600020905b81548152906001019060200180831161026057829003601f168201915b5050505050815260200160018201805461029690612331565b80601f01602080910402602001604051908101604052809291908181526020018280546102c290612331565b801561030f5780601f106102e45761010080835404028352916020019161030f565b820191906000526020600020905b8154815290600101906020018083116102f257829003601f168201915b5050505050815260200160028201805461032890612331565b80601f016020809104026020016040519081016040528092919081815260200182805461035490612331565b80156103a15780601f10610376576101008083540402835291602001916103a1565b820191906000526020600020905b81548152906001019060200180831161038457829003601f168201915b505050505081526020016003820180546103ba90612331565b80601f01602080910402602001604051908101604052809291908181526020018280546103e690612331565b80156104335780601f1061040857610100808354040283529160200191610433565b820191906000526020600020905b81548152906001019060200180831161041657829003601f168201915b505050505081526020016004820154815260200160058201805480602002602001604051908101604052809291908181526020016000905b8282101561051757838290600052602060002001805461048a90612331565b80601f01602080910402602001604051908101604052809291908181526020018280546104b690612331565b80156105035780601f106104d857610100808354040283529160200191610503565b820191906000526020600020905b8154815290600101906020018083116104e657829003601f168201915b50505050508152602001906001019061046b565b50505050815260200160068201805461052f90612331565b80601f016020809104026020016040519081016040528092919081815260200182805461055b90612331565b80156105a85780601f1061057d576101008083540402835291602001916105a8565b820191906000526020600020905b81548152906001019060200180831161058b57829003601f168201915b505050505081526020016007820180546105c190612331565b80601f01602080910402602001604051908101604052809291908181526020018280546105ed90612331565b801561063a5780601f1061060f5761010080835404028352916020019161063a565b820191906000526020600020905b81548152906001019060200180831161061d57829003601f168201915b505050505081526020016008820160009054906101000a900460ff1615151515815260200160098201805461066e90612331565b80601f016020809104026020016040519081016040528092919081815260200182805461069a90612331565b80156106e75780601f106106bc576101008083540402835291602001916106e7565b820191906000526020600020905b8154815290600101906020018083116106ca57829003601f168201915b50505050508152602001600a820160009054906101000a900473ffffffffffffffffffffffffffffffffffffffff1673ffffffffffffffffffffffffffffffffffffffff1673ffffffffffffffffffffffffffffffffffffffff168152602001600b8201548152602001600c8201548152505082828151811061076d5761076c612363565b5b60200260200101819052508080610783906123c1565b9150506101cc565b508091505090565b60008173ffffffffffffffffffffffffffffffffffffffff16346040516107b990612461565b60006040518083038185875af1925050503d80600081146107f6576040519150601f19603f3d011682016040523d82523d6000602084013e6107fb565b606091505b505090508061083f576040517f08c379a0000000000000000000000000000000000000000000000000000000008152600401610836906124c2565b60405180910390fd5b5050565b60015481565b600060205280600052604060002060009150905080600001805461086c90612331565b80601f016020809104026020016040519081016040528092919081815260200182805461089890612331565b80156108e55780601f106108ba576101008083540402835291602001916108e5565b820191906000526020600020905b8154815290600101906020018083116108c857829003601f168201915b5050505050908060010180546108fa90612331565b80601f016020809104026020016040519081016040528092919081815260200182805461092690612331565b80156109735780601f1061094857610100808354040283529160200191610973565b820191906000526020600020905b81548152906001019060200180831161095657829003601f168201915b50505050509080600201805461098890612331565b80601f01602080910402602001604051908101604052809291908181526020018280546109b490612331565b8015610a015780601f106109d657610100808354040283529160200191610a01565b820191906000526020600020905b8154815290600101906020018083116109e457829003601f168201915b505050505090806003018054610a1690612331565b80601f0160208091040260200160405190810160405280929190818152602001828054610a4290612331565b8015610a8f5780601f10610a6457610100808354040283529160200191610a8f565b820191906000526020600020905b815481529060010190602001808311610a7257829003601f168201915b505050505090806004015490806006018054610aaa90612331565b80601f0160208091040260200160405190810160405280929190818152602001828054610ad690612331565b8015610b235780601f10610af857610100808354040283529160200191610b23565b820191906000526020600020905b815481529060010190602001808311610b0657829003601f168201915b505050505090806007018054610b3890612331565b80601f0160208091040260200160405190810160405280929190818152602001828054610b6490612331565b8015610bb15780601f10610b8657610100808354040283529160200191610bb1565b820191906000526020600020905b815481529060010190602001808311610b9457829003601f168201915b5050505050908060080160009054906101000a900460ff1690806009018054610bd990612331565b80601f0160208091040260200160405190810160405280929190818152602001828054610c0590612331565b8015610c525780601f10610c2757610100808354040283529160200191610c52565b820191906000526020600020905b815481529060010190602001808311610c3557829003601f168201915b50505050509080600a0160009054906101000a900473ffffffffffffffffffffffffffffffffffffffff169080600b01549080600c015490508c565b610c96611516565b6000429050600060016000815480929190610cb0906123c1565b9190505590506000806000838152602001908152602001600020905060008160080160006101000a81548160ff0219169083151502179055508d816000019080519060200190610d01929190611596565b508c816001019080519060200190610d1a929190611596565b508b816002019080519060200190610d33929190611596565b508a816003019080519060200190610d4c929190611596565b5089816004018190555088816005019080519060200190610d6e92919061161c565b5087816006019080519060200190610d87929190611596565b5086816007019080519060200190610da0929190611596565b5085816009019080519060200190610db9929190611596565b508481600a0160006101000a81548173ffffffffffffffffffffffffffffffffffffffff021916908373ffffffffffffffffffffffffffffffffffffffff1602179055508281600b01819055508281600c018190555080604051806101a0016040529081600082018054610e2c90612331565b80601f0160208091040260200160405190810160405280929190818152602001828054610e5890612331565b8015610ea55780601f10610e7a57610100808354040283529160200191610ea5565b820191906000526020600020905b815481529060010190602001808311610e8857829003601f168201915b50505050508152602001600182018054610ebe90612331565b80601f0160208091040260200160405190810160405280929190818152602001828054610eea90612331565b8015610f375780601f10610f0c57610100808354040283529160200191610f37565b820191906000526020600020905b815481529060010190602001808311610f1a57829003601f168201915b50505050508152602001600282018054610f5090612331565b80601f0160208091040260200160405190810160405280929190818152602001828054610f7c90612331565b8015610fc95780601f10610f9e57610100808354040283529160200191610fc9565b820191906000526020600020905b815481529060010190602001808311610fac57829003601f168201915b50505050508152602001600382018054610fe290612331565b80601f016020809104026020016040519081016040528092919081815260200182805461100e90612331565b801561105b5780601f106110305761010080835404028352916020019161105b565b820191906000526020600020905b81548152906001019060200180831161103e57829003601f168201915b505050505081526020016004820154815260200160058201805480602002602001604051908101604052809291908181526020016000905b8282101561113f5783829060005260206000200180546110b290612331565b80601f01602080910402602001604051908101604052809291908181526020018280546110de90612331565b801561112b5780601f106111005761010080835404028352916020019161112b565b820191906000526020600020905b81548152906001019060200180831161110e57829003601f168201915b505050505081526020019060010190611093565b50505050815260200160068201805461115790612331565b80601f016020809104026020016040519081016040528092919081815260200182805461118390612331565b80156111d05780601f106111a5576101008083540402835291602001916111d0565b820191906000526020600020905b8154815290600101906020018083116111b357829003601f168201915b505050505081526020016007820180546111e990612331565b80601f016020809104026020016040519081016040528092919081815260200182805461121590612331565b80156112625780601f1061123757610100808354040283529160200191611262565b820191906000526020600020905b81548152906001019060200180831161124557829003601f168201915b505050505081526020016008820160009054906101000a900460ff1615151515815260200160098201805461129690612331565b80601f01602080910402602001604051908101604052809291908181526020018280546112c290612331565b801561130f5780601f106112e45761010080835404028352916020019161130f565b820191906000526020600020905b8154815290600101906020018083116112f257829003601f168201915b50505050508152602001600a820160009054906101000a900473ffffffffffffffffffffffffffffffffffffffff1673ffffffffffffffffffffffffffffffffffffffff1673ffffffffffffffffffffffffffffffffffffffff168152602001600b8201548152602001600c8201548152505093505050509a9950505050505050505050565b60006002346113a49190612511565b9050600081346113b49190612542565b905060008373ffffffffffffffffffffffffffffffffffffffff16836040516113dc906125e8565b60006040518083038185875af1925050503d8060008114611419576040519150601f19603f3d011682016040523d82523d6000602084013e61141e565b606091505b5050905080611462576040517f08c379a000000000000000000000000000000000000000000000000000000000815260040161145990612649565b60405180910390fd5b60008573ffffffffffffffffffffffffffffffffffffffff1683604051611488906126db565b60006040518083038185875af1925050503d80600081146114c5576040519150601f19603f3d011682016040523d82523d6000602084013e6114ca565b606091505b505090508061150e576040517f08c379a00000000000000000000000000000000000000000000000000000000081526004016115059061273c565b60405180910390fd5b505050505050565b604051806101a00160405280606081526020016060815260200160608152602001606081526020016000815260200160608152602001606081526020016060815260200160001515815260200160608152602001600073ffffffffffffffffffffffffffffffffffffffff16815260200160008152602001600081525090565b8280546115a290612331565b90600052602060002090601f0160209004810192826115c4576000855561160b565b82601f106115dd57805160ff191683800117855561160b565b8280016001018555821561160b579182015b8281111561160a5782518255916020019190600101906115ef565b5b509050611618919061167c565b5090565b82805482825590600052602060002090810192821561166b579160200282015b8281111561166a57825182908051906020019061165a929190611596565b509160200191906001019061163c565b5b5090506116789190611699565b5090565b5b8082111561169557600081600090555060010161167d565b5090565b5b808211156116b957600081816116b091906116bd565b5060010161169a565b5090565b5080546116c990612331565b6000825580601f106116db57506116fa565b601f0160209004906000526020600020908101906116f9919061167c565b5b50565b600081519050919050565b600082825260208201905092915050565b6000819050602082019050919050565b600081519050919050565b600082825260208201905092915050565b60005b83811015611763578082015181840152602081019050611748565b83811115611772576000848401525b50505050565b6000601f19601f8301169050919050565b600061179482611729565b61179e8185611734565b93506117ae818560208601611745565b6117b781611778565b840191505092915050565b6000819050919050565b6117d5816117c2565b82525050565b600081519050919050565b600082825260208201905092915050565b6000819050602082019050919050565b60006118138383611789565b905092915050565b6000602082019050919050565b6000611833826117db565b61183d81856117e6565b93508360208202850161184f856117f7565b8060005b8581101561188b578484038952815161186c8582611807565b94506118778361181b565b925060208a01995050600181019050611853565b50829750879550505050505092915050565b60008115159050919050565b6118b28161189d565b82525050565b600073ffffffffffffffffffffffffffffffffffffffff82169050919050565b60006118e3826118b8565b9050919050565b6118f3816118d8565b82525050565b60006101a08301600083015184820360008601526119178282611789565b915050602083015184820360208601526119318282611789565b9150506040830151848203604086015261194b8282611789565b915050606083015184820360608601526119658282611789565b915050608083015161197a60808601826117cc565b5060a083015184820360a08601526119928282611828565b91505060c083015184820360c08601526119ac8282611789565b91505060e083015184820360e08601526119c68282611789565b9150506101008301516119dd6101008601826118a9565b506101208301518482036101208601526119f78282611789565b915050610140830151611a0e6101408601826118ea565b50610160830151611a236101608601826117cc565b50610180830151611a386101808601826117cc565b508091505092915050565b6000611a4f83836118f9565b905092915050565b6000602082019050919050565b6000611a6f826116fd565b611a798185611708565b935083602082028501611a8b85611719565b8060005b85811015611ac75784840389528151611aa88582611a43565b9450611ab383611a57565b925060208a01995050600181019050611a8f565b50829750879550505050505092915050565b60006020820190508181036000830152611af38184611a64565b905092915050565b6000604051905090565b600080fd5b600080fd5b611b18816118d8565b8114611b2357600080fd5b50565b600081359050611b3581611b0f565b92915050565b600060208284031215611b5157611b50611b05565b5b6000611b5f84828501611b26565b91505092915050565b611b71816117c2565b82525050565b6000602082019050611b8c6000830184611b68565b92915050565b611b9b816117c2565b8114611ba657600080fd5b50565b600081359050611bb881611b92565b92915050565b600060208284031215611bd457611bd3611b05565b5b6000611be284828501611ba9565b91505092915050565b600082825260208201905092915050565b6000611c0782611729565b611c118185611beb565b9350611c21818560208601611745565b611c2a81611778565b840191505092915050565b611c3e8161189d565b82525050565b611c4d816118d8565b82525050565b6000610180820190508181036000830152611c6e818f611bfc565b90508181036020830152611c82818e611bfc565b90508181036040830152611c96818d611bfc565b90508181036060830152611caa818c611bfc565b9050611cb9608083018b611b68565b81810360a0830152611ccb818a611bfc565b905081810360c0830152611cdf8189611bfc565b9050611cee60e0830188611c35565b818103610100830152611d018187611bfc565b9050611d11610120830186611c44565b611d1f610140830185611b68565b611d2d610160830184611b68565b9d9c50505050505050505050505050565b600080fd5b600080fd5b7f4e487b7100000000000000000000000000000000000000000000000000000000600052604160045260246000fd5b611d8082611778565b810181811067ffffffffffffffff82111715611d9f57611d9e611d48565b5b80604052505050565b6000611db2611afb565b9050611dbe8282611d77565b919050565b600067ffffffffffffffff821115611dde57611ddd611d48565b5b611de782611778565b9050602081019050919050565b82818337600083830152505050565b6000611e16611e1184611dc3565b611da8565b905082815260208101848484011115611e3257611e31611d43565b5b611e3d848285611df4565b509392505050565b600082601f830112611e5a57611e59611d3e565b5b8135611e6a848260208601611e03565b91505092915050565b600067ffffffffffffffff821115611e8e57611e8d611d48565b5b602082029050602081019050919050565b600080fd5b6000611eb7611eb284611e73565b611da8565b90508083825260208201905060208402830185811115611eda57611ed9611e9f565b5b835b81811015611f2157803567ffffffffffffffff811115611eff57611efe611d3e565b5b808601611f0c8982611e45565b85526020850194505050602081019050611edc565b5050509392505050565b600082601f830112611f4057611f3f611d3e565b5b8135611f50848260208601611ea4565b91505092915050565b6000806000806000806000806000806101408b8d031215611f7d57611f7c611b05565b5b60008b013567ffffffffffffffff811115611f9b57611f9a611b0a565b5b611fa78d828e01611e45565b9a505060208b013567ffffffffffffffff811115611fc857611fc7611b0a565b5b611fd48d828e01611e45565b99505060408b013567ffffffffffffffff811115611ff557611ff4611b0a565b5b6120018d828e01611e45565b98505060608b013567ffffffffffffffff81111561202257612021611b0a565b5b61202e8d828e01611e45565b975050608061203f8d828e01611ba9565b96505060a08b013567ffffffffffffffff8111156120605761205f611b0a565b5b61206c8d828e01611f2b565b95505060c08b013567ffffffffffffffff81111561208d5761208c611b0a565b5b6120998d828e01611e45565b94505060e08b013567ffffffffffffffff8111156120ba576120b9611b0a565b5b6120c68d828e01611e45565b9350506101008b013567ffffffffffffffff8111156120e8576120e7611b0a565b5b6120f48d828e01611e45565b9250506101206121068d828e01611b26565b9150509295989b9194979a5092959850565b60006101a08301600083015184820360008601526121368282611789565b915050602083015184820360208601526121508282611789565b9150506040830151848203604086015261216a8282611789565b915050606083015184820360608601526121848282611789565b915050608083015161219960808601826117cc565b5060a083015184820360a08601526121b18282611828565b91505060c083015184820360c08601526121cb8282611789565b91505060e083015184820360e08601526121e58282611789565b9150506101008301516121fc6101008601826118a9565b506101208301518482036101208601526122168282611789565b91505061014083015161222d6101408601826118ea565b506101608301516122426101608601826117cc565b506101808301516122576101808601826117cc565b508091505092915050565b6000602082019050818103600083015261227c8184612118565b905092915050565b600061228f826118b8565b9050919050565b61229f81612284565b81146122aa57600080fd5b50565b6000813590506122bc81612296565b92915050565b600080604083850312156122d9576122d8611b05565b5b60006122e7858286016122ad565b92505060206122f8858286016122ad565b9150509250929050565b7f4e487b7100000000000000000000000000000000000000000000000000000000600052602260045260246000fd5b6000600282049050600182168061234957607f821691505b6020821081141561235d5761235c612302565b5b50919050565b7f4e487b7100000000000000000000000000000000000000000000000000000000600052603260045260246000fd5b7f4e487b7100000000000000000000000000000000000000000000000000000000600052601160045260246000fd5b60006123cc826117c2565b91507fffffffffffffffffffffffffffffffffffffffffffffffffffffffffffffffff8214156123ff576123fe612392565b5b600182019050919050565b600081905092915050565b7f5472616e73666572726564207375636365737366756c6c790000000000000000600082015250565b600061244b60188361240a565b915061245682612415565b601882019050919050565b600061246c8261243e565b9150819050919050565b7f4d6f6e6579204e6f742073656e74000000000000000000000000000000000000600082015250565b60006124ac600e83611beb565b91506124b782612476565b602082019050919050565b600060208201905081810360008301526124db8161249f565b9050919050565b7f4e487b7100000000000000000000000000000000000000000000000000000000600052601260045260246000fd5b600061251c826117c2565b9150612527836117c2565b925082612537576125366124e2565b5b828204905092915050565b600061254d826117c2565b9150612558836117c2565b92508282101561256b5761256a612392565b5b828203905092915050565b7f5472616e7366657272656420746f2061646d696e207375636365737366756c6c60008201527f7900000000000000000000000000000000000000000000000000000000000000602082015250565b60006125d260218361240a565b91506125dd82612576565b602182019050919050565b60006125f3826125c5565b9150819050919050565b7f4661696c656420746f2073656e64206d6f6e657920746f2061646d696e000000600082015250565b6000612633601d83611beb565b915061263e826125fd565b602082019050919050565b6000602082019050818103600083015261266281612626565b9050919050565b7f5472616e7366657272656420746f2075706c6f6164657220737563636573736660008201527f756c6c7900000000000000000000000000000000000000000000000000000000602082015250565b60006126c560248361240a565b91506126d082612669565b602482019050919050565b60006126e6826126b8565b9150819050919050565b7f4661696c656420746f2073656e64206d6f6e657920746f2075706c6f61646572600082015250565b6000612726602083611beb565b9150612731826126f0565b602082019050919050565b6000602082019050818103600083015261275581612719565b905091905056fea2646970667358221220f562a311ed761e8265aeec8234e1c9193edb8bcb5c2996a77e800fd22bd6bdf364736f6c63430008090033",
  "immutableReferences": {},
  "source": "// SPDX-License-Identifier: UNLICENSED\npragma solidity >=0.6.0 <=0.9.0;\n \ncontract Songs {\n    struct Form {\n        string songThumbnail;\n        string albumName;\n        string userId;\n        string artistName;\n        uint256 price;\n        string[] tune;\n        string lyrics;\n        string songName;\n        bool favourited;\n        string songDescription;\n        address depositAddress;\n        uint256 createdAt;\n        uint256 updatedAt;\n    }\n \n    //mapping\n    mapping(uint256 => Form) public uploadSong;\n    //total song counts(unlike index)\n    uint public totalSongsCount = 0;\n \n    //saveSong\n    function createSong(\n        string memory _songThumbnail,\n        string memory _albumName,\n        string memory _userId,\n        string memory _artistName,\n        uint256 _price,\n        string[] memory _tune,\n        string memory _lyrics,\n        string memory _songName,\n        string memory _songDescription,\n        address _depositAddress\n    ) public returns(Form memory) {\n        //to get timestamp of the date\n        uint256 timenow = block.timestamp;\n \n        //savesong property\n        uint256 index = totalSongsCount++;\n        Form storage song = uploadSong[index];\n        //songdetails\n        song.favourited = false;\n        song.songThumbnail = _songThumbnail;\n        song.albumName = _albumName;\n        song.userId = _userId;\n        song.artistName = _artistName;\n        song.price = _price;\n        song.tune = _tune;\n        song.lyrics = _lyrics;\n        song.songName = _songName;\n        song.songDescription = _songDescription;\n        song.depositAddress = _depositAddress;\n        song.createdAt = timenow;\n        song.updatedAt = timenow;\n \n        return song;\n    }\n \n    //getallsongs\n    function getAllSongs() public view returns(Form[] memory) {\n        Form[] memory allSongs = new Form[](totalSongsCount);\n        for(uint256 i = 0; i < totalSongsCount; i++) {\n            allSongs[i] = uploadSong[i];\n        }\n        return allSongs;\n    }\n\n \n \n    function sendMoney(address _sendTo) external payable {\n        (bool sent, ) = payable(_sendTo).call{value: msg.value}(\n            \"Transferred successfully\"\n        );\n        require(sent, \"Money Not sent\");\n    }\n     \n function sendToUploader(\n        address payable _uploader,\n        address payable _admin\n    ) external payable {\n        // uint256 amountToSend = msg.value / 2; // Divide the received amount equally\n \n        uint256 amountToAdmin = (msg.value) /2;\n        uint256 amountToUploader = msg.value - amountToAdmin;\n \n        (bool sent1, ) = _admin.call{value: amountToAdmin}(\n            \"Transferred to admin successfully\"\n        );\n        require(sent1, \"Failed to send money to admin\");\n \n        (bool sent2, ) = _uploader.call{value: amountToUploader}(\n            \"Transferred to uploader successfully\"\n        );\n        require(sent2, \"Failed to send money to uploader\");\n    }\n \n}\n ",
  "sourcePath": "/Users/ideyalabs/Documents/GitHub/iMusic/client/src/truffle/contracts/Songs.sol",
  "compiler": {
    "name": "solc",
    "version": "0.8.9+commit.e5eed63a.Emscripten.clang"
  },
  "schemaVersion": "3.4.13",
  "updatedAt": "2023-05-30T15:17:42.789Z",
  "networkType": "ethereum",
  "devdoc": {
    "kind": "dev",
    "methods": {},
    "version": 1
  },
  "userdoc": {
    "kind": "user",
    "methods": {},
    "version": 1
  }
}