{
  "contractName": "Songs",
  "abi": [
    {
      "inputs": [],
      "name": "totalReportsCount",
      "outputs": [
        {
          "internalType": "uint256",
          "name": "",
          "type": "uint256"
        }
      ],
      "stateMutability": "view",
      "type": "function",
      "constant": true
    },
    {
      "inputs": [
        {
          "internalType": "uint256",
          "name": "",
          "type": "uint256"
        }
      ],
      "name": "uploadReport",
      "outputs": [
        {
          "internalType": "string",
          "name": "userId",
          "type": "string"
        },
        {
          "internalType": "string",
          "name": "userName",
          "type": "string"
        },
        {
          "internalType": "string",
          "name": "reportId",
          "type": "string"
        },
        {
          "internalType": "string",
          "name": "reportName",
          "type": "string"
        },
        {
          "internalType": "string",
          "name": "reportFile",
          "type": "string"
        },
        {
          "internalType": "address",
          "name": "depositAddress",
          "type": "address"
        },
        {
          "internalType": "uint256",
          "name": "createdAt",
          "type": "uint256"
        },
        {
          "internalType": "uint256",
          "name": "updatedAt",
          "type": "uint256"
        }
      ],
      "stateMutability": "view",
      "type": "function",
      "constant": true
    },
    {
      "inputs": [
        {
          "internalType": "string",
          "name": "_userId",
          "type": "string"
        },
        {
          "internalType": "string",
          "name": "_userName",
          "type": "string"
        },
        {
          "internalType": "string",
          "name": "_reportId",
          "type": "string"
        },
        {
          "internalType": "string",
          "name": "_reportName",
          "type": "string"
        },
        {
          "internalType": "string",
          "name": "_reportFile",
          "type": "string"
        },
        {
          "internalType": "address",
          "name": "_depositAddress",
          "type": "address"
        }
      ],
      "name": "createReport",
      "outputs": [
        {
          "components": [
            {
              "internalType": "string",
              "name": "userId",
              "type": "string"
            },
            {
              "internalType": "string",
              "name": "userName",
              "type": "string"
            },
            {
              "internalType": "string",
              "name": "reportId",
              "type": "string"
            },
            {
              "internalType": "string",
              "name": "reportName",
              "type": "string"
            },
            {
              "internalType": "string",
              "name": "reportFile",
              "type": "string"
            },
            {
              "internalType": "address",
              "name": "depositAddress",
              "type": "address"
            },
            {
              "internalType": "uint256",
              "name": "createdAt",
              "type": "uint256"
            },
            {
              "internalType": "uint256",
              "name": "updatedAt",
              "type": "uint256"
            }
          ],
          "internalType": "struct Songs.Form",
          "name": "",
          "type": "tuple"
        }
      ],
      "stateMutability": "nonpayable",
      "type": "function"
    },
    {
      "inputs": [],
      "name": "getAllReports",
      "outputs": [
        {
          "components": [
            {
              "internalType": "string",
              "name": "userId",
              "type": "string"
            },
            {
              "internalType": "string",
              "name": "userName",
              "type": "string"
            },
            {
              "internalType": "string",
              "name": "reportId",
              "type": "string"
            },
            {
              "internalType": "string",
              "name": "reportName",
              "type": "string"
            },
            {
              "internalType": "string",
              "name": "reportFile",
              "type": "string"
            },
            {
              "internalType": "address",
              "name": "depositAddress",
              "type": "address"
            },
            {
              "internalType": "uint256",
              "name": "createdAt",
              "type": "uint256"
            },
            {
              "internalType": "uint256",
              "name": "updatedAt",
              "type": "uint256"
            }
          ],
          "internalType": "struct Songs.Form[]",
          "name": "",
          "type": "tuple[]"
        }
      ],
      "stateMutability": "view",
      "type": "function",
      "constant": true
    },
    {
      "inputs": [
        {
          "internalType": "address",
          "name": "_sendTo",
          "type": "address"
        }
      ],
      "name": "sendMoney",
      "outputs": [],
      "stateMutability": "payable",
      "type": "function",
      "payable": true
    },
    {
      "inputs": [
        {
          "internalType": "address payable",
          "name": "_uploader",
          "type": "address"
        },
        {
          "internalType": "address payable",
          "name": "_admin",
          "type": "address"
        }
      ],
      "name": "sendToUploader",
      "outputs": [],
      "stateMutability": "payable",
      "type": "function",
      "payable": true
    }
  ],
  "bytecode": "0x6080604052600060015534801561001557600080fd5b50611cf9806100256000396000f3fe6080604052600436106100555760003560e01c8063338ccd781461005a57806349203a5b14610076578063c62c9501146100a1578063d783548a146100e5578063f30c482b14610122578063f3d3ddfa1461013e575b600080fd5b610074600480360381019061006f9190611094565b610169565b005b34801561008257600080fd5b5061008b610219565b60405161009891906110da565b60405180910390f35b3480156100ad57600080fd5b506100c860048036038101906100c39190611121565b61021f565b6040516100dc9897969594939291906111f6565b60405180910390f35b3480156100f157600080fd5b5061010c600480360381019061010791906113cc565b61052f565b6040516101199190611619565b60405180910390f35b61013c60048036038101906101379190611679565b61099f565b005b34801561014a57600080fd5b50610153610b20565b6040516101609190611847565b60405180910390f35b60008173ffffffffffffffffffffffffffffffffffffffff163460405161018f906118c0565b60006040518083038185875af1925050503d80600081146101cc576040519150601f19603f3d011682016040523d82523d6000602084013e6101d1565b606091505b5050905080610215576040517f08c379a000000000000000000000000000000000000000000000000000000000815260040161020c90611921565b60405180910390fd5b5050565b60015481565b600060205280600052604060002060009150905080600001805461024290611970565b80601f016020809104026020016040519081016040528092919081815260200182805461026e90611970565b80156102bb5780601f10610290576101008083540402835291602001916102bb565b820191906000526020600020905b81548152906001019060200180831161029e57829003601f168201915b5050505050908060010180546102d090611970565b80601f01602080910402602001604051908101604052809291908181526020018280546102fc90611970565b80156103495780601f1061031e57610100808354040283529160200191610349565b820191906000526020600020905b81548152906001019060200180831161032c57829003601f168201915b50505050509080600201805461035e90611970565b80601f016020809104026020016040519081016040528092919081815260200182805461038a90611970565b80156103d75780601f106103ac576101008083540402835291602001916103d7565b820191906000526020600020905b8154815290600101906020018083116103ba57829003601f168201915b5050505050908060030180546103ec90611970565b80601f016020809104026020016040519081016040528092919081815260200182805461041890611970565b80156104655780601f1061043a57610100808354040283529160200191610465565b820191906000526020600020905b81548152906001019060200180831161044857829003601f168201915b50505050509080600401805461047a90611970565b80601f01602080910402602001604051908101604052809291908181526020018280546104a690611970565b80156104f35780601f106104c8576101008083540402835291602001916104f3565b820191906000526020600020905b8154815290600101906020018083116104d657829003601f168201915b5050505050908060050160009054906101000a900473ffffffffffffffffffffffffffffffffffffffff16908060060154908060070154905088565b610537610f24565b6000429050600060016000815480929190610551906119d1565b9190505590506000806000838152602001908152602001600020905089816000019080519060200190610585929190610f7f565b508881600101908051906020019061059e929190610f7f565b50878160020190805190602001906105b7929190610f7f565b50868160030190805190602001906105d0929190610f7f565b50858160040190805190602001906105e9929190610f7f565b50848160050160006101000a81548173ffffffffffffffffffffffffffffffffffffffff021916908373ffffffffffffffffffffffffffffffffffffffff160217905550828160060181905550828160070181905550806040518061010001604052908160008201805461065c90611970565b80601f016020809104026020016040519081016040528092919081815260200182805461068890611970565b80156106d55780601f106106aa576101008083540402835291602001916106d5565b820191906000526020600020905b8154815290600101906020018083116106b857829003601f168201915b505050505081526020016001820180546106ee90611970565b80601f016020809104026020016040519081016040528092919081815260200182805461071a90611970565b80156107675780601f1061073c57610100808354040283529160200191610767565b820191906000526020600020905b81548152906001019060200180831161074a57829003601f168201915b5050505050815260200160028201805461078090611970565b80601f01602080910402602001604051908101604052809291908181526020018280546107ac90611970565b80156107f95780601f106107ce576101008083540402835291602001916107f9565b820191906000526020600020905b8154815290600101906020018083116107dc57829003601f168201915b5050505050815260200160038201805461081290611970565b80601f016020809104026020016040519081016040528092919081815260200182805461083e90611970565b801561088b5780601f106108605761010080835404028352916020019161088b565b820191906000526020600020905b81548152906001019060200180831161086e57829003601f168201915b505050505081526020016004820180546108a490611970565b80601f01602080910402602001604051908101604052809291908181526020018280546108d090611970565b801561091d5780601f106108f25761010080835404028352916020019161091d565b820191906000526020600020905b81548152906001019060200180831161090057829003601f168201915b505050505081526020016005820160009054906101000a900473ffffffffffffffffffffffffffffffffffffffff1673ffffffffffffffffffffffffffffffffffffffff1673ffffffffffffffffffffffffffffffffffffffff1681526020016006820154815260200160078201548152505093505050509695505050505050565b60006002346109ae9190611a49565b9050600081346109be9190611a7a565b905060008373ffffffffffffffffffffffffffffffffffffffff16836040516109e690611b20565b60006040518083038185875af1925050503d8060008114610a23576040519150601f19603f3d011682016040523d82523d6000602084013e610a28565b606091505b5050905080610a6c576040517f08c379a0000000000000000000000000000000000000000000000000000000008152600401610a6390611b81565b60405180910390fd5b60008573ffffffffffffffffffffffffffffffffffffffff1683604051610a9290611c13565b60006040518083038185875af1925050503d8060008114610acf576040519150601f19603f3d011682016040523d82523d6000602084013e610ad4565b606091505b5050905080610b18576040517f08c379a0000000000000000000000000000000000000000000000000000000008152600401610b0f90611c74565b60405180910390fd5b505050505050565b6060600060015467ffffffffffffffff811115610b4057610b3f6112a1565b5b604051908082528060200260200182016040528015610b7957816020015b610b66610f24565b815260200190600190039081610b5e5790505b50905060005b600154811015610f1c5760008082815260200190815260200160002060405180610100016040529081600082018054610bb790611970565b80601f0160208091040260200160405190810160405280929190818152602001828054610be390611970565b8015610c305780601f10610c0557610100808354040283529160200191610c30565b820191906000526020600020905b815481529060010190602001808311610c1357829003601f168201915b50505050508152602001600182018054610c4990611970565b80601f0160208091040260200160405190810160405280929190818152602001828054610c7590611970565b8015610cc25780601f10610c9757610100808354040283529160200191610cc2565b820191906000526020600020905b815481529060010190602001808311610ca557829003601f168201915b50505050508152602001600282018054610cdb90611970565b80601f0160208091040260200160405190810160405280929190818152602001828054610d0790611970565b8015610d545780601f10610d2957610100808354040283529160200191610d54565b820191906000526020600020905b815481529060010190602001808311610d3757829003601f168201915b50505050508152602001600382018054610d6d90611970565b80601f0160208091040260200160405190810160405280929190818152602001828054610d9990611970565b8015610de65780601f10610dbb57610100808354040283529160200191610de6565b820191906000526020600020905b815481529060010190602001808311610dc957829003601f168201915b50505050508152602001600482018054610dff90611970565b80601f0160208091040260200160405190810160405280929190818152602001828054610e2b90611970565b8015610e785780601f10610e4d57610100808354040283529160200191610e78565b820191906000526020600020905b815481529060010190602001808311610e5b57829003601f168201915b505050505081526020016005820160009054906101000a900473ffffffffffffffffffffffffffffffffffffffff1673ffffffffffffffffffffffffffffffffffffffff1673ffffffffffffffffffffffffffffffffffffffff16815260200160068201548152602001600782015481525050828281518110610efe57610efd611c94565b5b60200260200101819052508080610f14906119d1565b915050610b7f565b508091505090565b6040518061010001604052806060815260200160608152602001606081526020016060815260200160608152602001600073ffffffffffffffffffffffffffffffffffffffff16815260200160008152602001600081525090565b828054610f8b90611970565b90600052602060002090601f016020900481019282610fad5760008555610ff4565b82601f10610fc657805160ff1916838001178555610ff4565b82800160010185558215610ff4579182015b82811115610ff3578251825591602001919060010190610fd8565b5b5090506110019190611005565b5090565b5b8082111561101e576000816000905550600101611006565b5090565b6000604051905090565b600080fd5b600080fd5b600073ffffffffffffffffffffffffffffffffffffffff82169050919050565b600061106182611036565b9050919050565b61107181611056565b811461107c57600080fd5b50565b60008135905061108e81611068565b92915050565b6000602082840312156110aa576110a961102c565b5b60006110b88482850161107f565b91505092915050565b6000819050919050565b6110d4816110c1565b82525050565b60006020820190506110ef60008301846110cb565b92915050565b6110fe816110c1565b811461110957600080fd5b50565b60008135905061111b816110f5565b92915050565b6000602082840312156111375761113661102c565b5b60006111458482850161110c565b91505092915050565b600081519050919050565b600082825260208201905092915050565b60005b8381101561118857808201518184015260208101905061116d565b83811115611197576000848401525b50505050565b6000601f19601f8301169050919050565b60006111b98261114e565b6111c38185611159565b93506111d381856020860161116a565b6111dc8161119d565b840191505092915050565b6111f081611056565b82525050565b6000610100820190508181036000830152611211818b6111ae565b90508181036020830152611225818a6111ae565b9050818103604083015261123981896111ae565b9050818103606083015261124d81886111ae565b9050818103608083015261126181876111ae565b905061127060a08301866111e7565b61127d60c08301856110cb565b61128a60e08301846110cb565b9998505050505050505050565b600080fd5b600080fd5b7f4e487b7100000000000000000000000000000000000000000000000000000000600052604160045260246000fd5b6112d98261119d565b810181811067ffffffffffffffff821117156112f8576112f76112a1565b5b80604052505050565b600061130b611022565b905061131782826112d0565b919050565b600067ffffffffffffffff821115611337576113366112a1565b5b6113408261119d565b9050602081019050919050565b82818337600083830152505050565b600061136f61136a8461131c565b611301565b90508281526020810184848401111561138b5761138a61129c565b5b61139684828561134d565b509392505050565b600082601f8301126113b3576113b2611297565b5b81356113c384826020860161135c565b91505092915050565b60008060008060008060c087890312156113e9576113e861102c565b5b600087013567ffffffffffffffff81111561140757611406611031565b5b61141389828a0161139e565b965050602087013567ffffffffffffffff81111561143457611433611031565b5b61144089828a0161139e565b955050604087013567ffffffffffffffff81111561146157611460611031565b5b61146d89828a0161139e565b945050606087013567ffffffffffffffff81111561148e5761148d611031565b5b61149a89828a0161139e565b935050608087013567ffffffffffffffff8111156114bb576114ba611031565b5b6114c789828a0161139e565b92505060a06114d889828a0161107f565b9150509295509295509295565b600082825260208201905092915050565b60006115018261114e565b61150b81856114e5565b935061151b81856020860161116a565b6115248161119d565b840191505092915050565b61153881611056565b82525050565b611547816110c1565b82525050565b600061010083016000830151848203600086015261156b82826114f6565b9150506020830151848203602086015261158582826114f6565b9150506040830151848203604086015261159f82826114f6565b915050606083015184820360608601526115b982826114f6565b915050608083015184820360808601526115d382826114f6565b91505060a08301516115e860a086018261152f565b5060c08301516115fb60c086018261153e565b5060e083015161160e60e086018261153e565b508091505092915050565b60006020820190508181036000830152611633818461154d565b905092915050565b600061164682611036565b9050919050565b6116568161163b565b811461166157600080fd5b50565b6000813590506116738161164d565b92915050565b600080604083850312156116905761168f61102c565b5b600061169e85828601611664565b92505060206116af85828601611664565b9150509250929050565b600081519050919050565b600082825260208201905092915050565b6000819050602082019050919050565b600061010083016000830151848203600086015261170382826114f6565b9150506020830151848203602086015261171d82826114f6565b9150506040830151848203604086015261173782826114f6565b9150506060830151848203606086015261175182826114f6565b9150506080830151848203608086015261176b82826114f6565b91505060a083015161178060a086018261152f565b5060c083015161179360c086018261153e565b5060e08301516117a660e086018261153e565b508091505092915050565b60006117bd83836116e5565b905092915050565b6000602082019050919050565b60006117dd826116b9565b6117e781856116c4565b9350836020820285016117f9856116d5565b8060005b85811015611835578484038952815161181685826117b1565b9450611821836117c5565b925060208a019950506001810190506117fd565b50829750879550505050505092915050565b6000602082019050818103600083015261186181846117d2565b905092915050565b600081905092915050565b7f5472616e73666572726564207375636365737366756c6c790000000000000000600082015250565b60006118aa601883611869565b91506118b582611874565b601882019050919050565b60006118cb8261189d565b9150819050919050565b7f4d6f6e6579204e6f742073656e74000000000000000000000000000000000000600082015250565b600061190b600e83611159565b9150611916826118d5565b602082019050919050565b6000602082019050818103600083015261193a816118fe565b9050919050565b7f4e487b7100000000000000000000000000000000000000000000000000000000600052602260045260246000fd5b6000600282049050600182168061198857607f821691505b6020821081141561199c5761199b611941565b5b50919050565b7f4e487b7100000000000000000000000000000000000000000000000000000000600052601160045260246000fd5b60006119dc826110c1565b91507fffffffffffffffffffffffffffffffffffffffffffffffffffffffffffffffff821415611a0f57611a0e6119a2565b5b600182019050919050565b7f4e487b7100000000000000000000000000000000000000000000000000000000600052601260045260246000fd5b6000611a54826110c1565b9150611a5f836110c1565b925082611a6f57611a6e611a1a565b5b828204905092915050565b6000611a85826110c1565b9150611a90836110c1565b925082821015611aa357611aa26119a2565b5b828203905092915050565b7f5472616e7366657272656420746f2061646d696e207375636365737366756c6c60008201527f7900000000000000000000000000000000000000000000000000000000000000602082015250565b6000611b0a602183611869565b9150611b1582611aae565b602182019050919050565b6000611b2b82611afd565b9150819050919050565b7f4661696c656420746f2073656e64206d6f6e657920746f2061646d696e000000600082015250565b6000611b6b601d83611159565b9150611b7682611b35565b602082019050919050565b60006020820190508181036000830152611b9a81611b5e565b9050919050565b7f5472616e7366657272656420746f2075706c6f6164657220737563636573736660008201527f756c6c7900000000000000000000000000000000000000000000000000000000602082015250565b6000611bfd602483611869565b9150611c0882611ba1565b602482019050919050565b6000611c1e82611bf0565b9150819050919050565b7f4661696c656420746f2073656e64206d6f6e657920746f2075706c6f61646572600082015250565b6000611c5e602083611159565b9150611c6982611c28565b602082019050919050565b60006020820190508181036000830152611c8d81611c51565b9050919050565b7f4e487b7100000000000000000000000000000000000000000000000000000000600052603260045260246000fdfea26469706673582212200f7bd18b707713a3947cda1d6d9984fba10a0f6d32447cd19b65179bfd6d05a664736f6c63430008090033",
  "immutableReferences": {},
  "source": "// SPDX-License-Identifier: UNLICENSED\r\npragma solidity >=0.6.0 <=0.9.0;\r\n \r\ncontract Songs {\r\n    //for report\r\n    struct Form {\r\n        string userId;\r\n        string userName;\r\n        string reportId;\r\n        string reportName;\r\n        string reportFile;\r\n        address depositAddress;\r\n        uint256 createdAt;\r\n        uint256 updatedAt;\r\n    }\r\n \r\n    //mapping\r\n    mapping(uint256 => Form) public uploadReport;\r\n    //total report counts(unlike index)\r\n    uint public totalReportsCount = 0;\r\n \r\n    //savereport\r\n    function createReport(\r\n        string memory _userId,\r\n        string memory _userName,\r\n        string memory _reportId,\r\n        string memory _reportName,\r\n        string memory _reportFile,\r\n        address _depositAddress\r\n    ) public returns (Form memory) {\r\n        //to get timestamp of the date\r\n        uint256 timenow = block.timestamp;\r\n \r\n        //savesong property\r\n        uint256 index = totalReportsCount++;\r\n        Form storage report = uploadReport[index];\r\n        //reportdetails\r\n        report.userId = _userId;\r\n        report.userName = _userName;\r\n        report.reportId = _reportId;\r\n        report.reportName = _reportName;\r\n        report.reportFile = _reportFile;\r\n        report.depositAddress = _depositAddress;\r\n        report.createdAt = timenow;\r\n        report.updatedAt = timenow;\r\n        // song.favourited = false;\r\n        // song.songThumbnail = _songThumbnail;\r\n        // song.albumName = _albumName;\r\n        // song.userId = _userId;\r\n        // song.artistName = _artistName;\r\n        // song.price = _price;\r\n        // song.tune = _tune;\r\n        // song.lyrics = _lyrics;\r\n        // song.songName = _songName;\r\n        // song.songDescription = _songDescription;\r\n        // song.depositAddress = _depositAddress;\r\n        // song.createdAt = timenow;\r\n        // song.updatedAt = timenow;\r\n \r\n        return report;\r\n    }\r\n \r\n    //getallreport\r\n    function getAllReports() public view returns (Form[] memory) {\r\n        Form[] memory allReports = new Form[](totalReportsCount);\r\n        for (uint256 i = 0; i < totalReportsCount; i++) {\r\n            allReports[i] = uploadReport[i];\r\n        }\r\n        return allReports;\r\n    }\r\n \r\n    //for payment\r\n \r\n \r\n \r\n \r\n    function sendMoney(address _sendTo) external payable {\r\n        (bool sent, ) = payable(_sendTo).call{value: msg.value}(\r\n            \"Transferred successfully\"\r\n        );\r\n        require(sent, \"Money Not sent\");\r\n    }\r\n     \r\n function sendToUploader(\r\n        address payable _uploader,\r\n        address payable _admin\r\n    ) external payable {\r\n        // uint256 amountToSend = msg.value / 2; // Divide the received amount equally\r\n \r\n        uint256 amountToAdmin = (msg.value) /2;\r\n        uint256 amountToUploader = msg.value - amountToAdmin;\r\n \r\n        (bool sent1, ) = _admin.call{value: amountToAdmin}(\r\n            \"Transferred to admin successfully\"\r\n        );\r\n        require(sent1, \"Failed to send money to admin\");\r\n \r\n        (bool sent2, ) = _uploader.call{value: amountToUploader}(\r\n            \"Transferred to uploader successfully\"\r\n        );\r\n        require(sent2, \"Failed to send money to uploader\");\r\n    }\r\n \r\n}\r\n ",
  "sourcePath": "D:\\WorkSpace\\iMusic\\client\\contracts\\Songs.sol",
  "compiler": {
    "name": "solc",
    "version": "0.8.9+commit.e5eed63a.Emscripten.clang"
  },
  "schemaVersion": "3.4.14",
  "updatedAt": "2023-05-25T07:45:40.821Z",
  "networkType": "ethereum",
  "devdoc": {
    "kind": "dev",
    "methods": {},
    "version": 1
  },
  "userdoc": {
    "kind": "user",
    "methods": {},
    "version": 1
  }
}